{
  "_format": "hh-sol-artifact-1",
  "contractName": "RaptorTickets",
  "sourceName": "contracts/Raptors.sol",
  "abi": [
    {
      "inputs": [
        {
          "internalType": "string",
          "name": "baseURI",
          "type": "string"
        },
        {
          "internalType": "address",
          "name": "whitelistContract",
          "type": "address"
        }
      ],
      "stateMutability": "nonpayable",
      "type": "constructor"
    },
    {
      "anonymous": false,
      "inputs": [
        {
          "indexed": true,
          "internalType": "address",
          "name": "owner",
          "type": "address"
        },
        {
          "indexed": true,
          "internalType": "address",
          "name": "approved",
          "type": "address"
        },
        {
          "indexed": true,
          "internalType": "uint256",
          "name": "tokenId",
          "type": "uint256"
        }
      ],
      "name": "Approval",
      "type": "event"
    },
    {
      "anonymous": false,
      "inputs": [
        {
          "indexed": true,
          "internalType": "address",
          "name": "owner",
          "type": "address"
        },
        {
          "indexed": true,
          "internalType": "address",
          "name": "operator",
          "type": "address"
        },
        {
          "indexed": false,
          "internalType": "bool",
          "name": "approved",
          "type": "bool"
        }
      ],
      "name": "ApprovalForAll",
      "type": "event"
    },
    {
      "anonymous": false,
      "inputs": [
        {
          "indexed": true,
          "internalType": "address",
          "name": "previousOwner",
          "type": "address"
        },
        {
          "indexed": true,
          "internalType": "address",
          "name": "newOwner",
          "type": "address"
        }
      ],
      "name": "OwnershipTransferred",
      "type": "event"
    },
    {
      "anonymous": false,
      "inputs": [
        {
          "indexed": true,
          "internalType": "address",
          "name": "from",
          "type": "address"
        },
        {
          "indexed": true,
          "internalType": "address",
          "name": "to",
          "type": "address"
        },
        {
          "indexed": true,
          "internalType": "uint256",
          "name": "tokenId",
          "type": "uint256"
        }
      ],
      "name": "Transfer",
      "type": "event"
    },
    {
      "stateMutability": "payable",
      "type": "fallback"
    },
    {
      "inputs": [],
      "name": "_paused",
      "outputs": [
        {
          "internalType": "bool",
          "name": "",
          "type": "bool"
        }
      ],
      "stateMutability": "view",
      "type": "function"
    },
    {
      "inputs": [],
      "name": "_price",
      "outputs": [
        {
          "internalType": "uint256",
          "name": "",
          "type": "uint256"
        }
      ],
      "stateMutability": "view",
      "type": "function"
    },
    {
      "inputs": [
        {
          "internalType": "address",
          "name": "to",
          "type": "address"
        },
        {
          "internalType": "uint256",
          "name": "tokenId",
          "type": "uint256"
        }
      ],
      "name": "approve",
      "outputs": [],
      "stateMutability": "nonpayable",
      "type": "function"
    },
    {
      "inputs": [
        {
          "internalType": "address",
          "name": "owner",
          "type": "address"
        }
      ],
      "name": "balanceOf",
      "outputs": [
        {
          "internalType": "uint256",
          "name": "",
          "type": "uint256"
        }
      ],
      "stateMutability": "view",
      "type": "function"
    },
    {
      "inputs": [
        {
          "internalType": "uint256",
          "name": "tokenId",
          "type": "uint256"
        }
      ],
      "name": "getApproved",
      "outputs": [
        {
          "internalType": "address",
          "name": "",
          "type": "address"
        }
      ],
      "stateMutability": "view",
      "type": "function"
    },
    {
      "inputs": [
        {
          "internalType": "address",
          "name": "owner",
          "type": "address"
        },
        {
          "internalType": "address",
          "name": "operator",
          "type": "address"
        }
      ],
      "name": "isApprovedForAll",
      "outputs": [
        {
          "internalType": "bool",
          "name": "",
          "type": "bool"
        }
      ],
      "stateMutability": "view",
      "type": "function"
    },
    {
      "inputs": [],
      "name": "maxTokenIds",
      "outputs": [
        {
          "internalType": "uint256",
          "name": "",
          "type": "uint256"
        }
      ],
      "stateMutability": "view",
      "type": "function"
    },
    {
      "inputs": [],
      "name": "mint",
      "outputs": [],
      "stateMutability": "payable",
      "type": "function"
    },
    {
      "inputs": [],
      "name": "name",
      "outputs": [
        {
          "internalType": "string",
          "name": "",
          "type": "string"
        }
      ],
      "stateMutability": "view",
      "type": "function"
    },
    {
      "inputs": [],
      "name": "owner",
      "outputs": [
        {
          "internalType": "address",
          "name": "",
          "type": "address"
        }
      ],
      "stateMutability": "view",
      "type": "function"
    },
    {
      "inputs": [
        {
          "internalType": "uint256",
          "name": "tokenId",
          "type": "uint256"
        }
      ],
      "name": "ownerOf",
      "outputs": [
        {
          "internalType": "address",
          "name": "",
          "type": "address"
        }
      ],
      "stateMutability": "view",
      "type": "function"
    },
    {
      "inputs": [],
      "name": "presaleEnded",
      "outputs": [
        {
          "internalType": "uint256",
          "name": "",
          "type": "uint256"
        }
      ],
      "stateMutability": "view",
      "type": "function"
    },
    {
      "inputs": [],
      "name": "presaleMint",
      "outputs": [],
      "stateMutability": "payable",
      "type": "function"
    },
    {
      "inputs": [],
      "name": "presaleStarted",
      "outputs": [
        {
          "internalType": "bool",
          "name": "",
          "type": "bool"
        }
      ],
      "stateMutability": "view",
      "type": "function"
    },
    {
      "inputs": [],
      "name": "renounceOwnership",
      "outputs": [],
      "stateMutability": "nonpayable",
      "type": "function"
    },
    {
      "inputs": [
        {
          "internalType": "address",
          "name": "from",
          "type": "address"
        },
        {
          "internalType": "address",
          "name": "to",
          "type": "address"
        },
        {
          "internalType": "uint256",
          "name": "tokenId",
          "type": "uint256"
        }
      ],
      "name": "safeTransferFrom",
      "outputs": [],
      "stateMutability": "nonpayable",
      "type": "function"
    },
    {
      "inputs": [
        {
          "internalType": "address",
          "name": "from",
          "type": "address"
        },
        {
          "internalType": "address",
          "name": "to",
          "type": "address"
        },
        {
          "internalType": "uint256",
          "name": "tokenId",
          "type": "uint256"
        },
        {
          "internalType": "bytes",
          "name": "data",
          "type": "bytes"
        }
      ],
      "name": "safeTransferFrom",
      "outputs": [],
      "stateMutability": "nonpayable",
      "type": "function"
    },
    {
      "inputs": [
        {
          "internalType": "address",
          "name": "operator",
          "type": "address"
        },
        {
          "internalType": "bool",
          "name": "approved",
          "type": "bool"
        }
      ],
      "name": "setApprovalForAll",
      "outputs": [],
      "stateMutability": "nonpayable",
      "type": "function"
    },
    {
      "inputs": [
        {
          "internalType": "bool",
          "name": "val",
          "type": "bool"
        }
      ],
      "name": "setPaused",
      "outputs": [],
      "stateMutability": "nonpayable",
      "type": "function"
    },
    {
      "inputs": [],
      "name": "startPresale",
      "outputs": [],
      "stateMutability": "nonpayable",
      "type": "function"
    },
    {
      "inputs": [
        {
          "internalType": "bytes4",
          "name": "interfaceId",
          "type": "bytes4"
        }
      ],
      "name": "supportsInterface",
      "outputs": [
        {
          "internalType": "bool",
          "name": "",
          "type": "bool"
        }
      ],
      "stateMutability": "view",
      "type": "function"
    },
    {
      "inputs": [],
      "name": "symbol",
      "outputs": [
        {
          "internalType": "string",
          "name": "",
          "type": "string"
        }
      ],
      "stateMutability": "view",
      "type": "function"
    },
    {
      "inputs": [
        {
          "internalType": "uint256",
          "name": "index",
          "type": "uint256"
        }
      ],
      "name": "tokenByIndex",
      "outputs": [
        {
          "internalType": "uint256",
          "name": "",
          "type": "uint256"
        }
      ],
      "stateMutability": "view",
      "type": "function"
    },
    {
      "inputs": [],
      "name": "tokenIds",
      "outputs": [
        {
          "internalType": "uint256",
          "name": "",
          "type": "uint256"
        }
      ],
      "stateMutability": "view",
      "type": "function"
    },
    {
      "inputs": [
        {
          "internalType": "address",
          "name": "owner",
          "type": "address"
        },
        {
          "internalType": "uint256",
          "name": "index",
          "type": "uint256"
        }
      ],
      "name": "tokenOfOwnerByIndex",
      "outputs": [
        {
          "internalType": "uint256",
          "name": "",
          "type": "uint256"
        }
      ],
      "stateMutability": "view",
      "type": "function"
    },
    {
      "inputs": [
        {
          "internalType": "uint256",
          "name": "tokenId",
          "type": "uint256"
        }
      ],
      "name": "tokenURI",
      "outputs": [
        {
          "internalType": "string",
          "name": "",
          "type": "string"
        }
      ],
      "stateMutability": "view",
      "type": "function"
    },
    {
      "inputs": [],
      "name": "totalSupply",
      "outputs": [
        {
          "internalType": "uint256",
          "name": "",
          "type": "uint256"
        }
      ],
      "stateMutability": "view",
      "type": "function"
    },
    {
      "inputs": [
        {
          "internalType": "address",
          "name": "from",
          "type": "address"
        },
        {
          "internalType": "address",
          "name": "to",
          "type": "address"
        },
        {
          "internalType": "uint256",
          "name": "tokenId",
          "type": "uint256"
        }
      ],
      "name": "transferFrom",
      "outputs": [],
      "stateMutability": "nonpayable",
      "type": "function"
    },
    {
      "inputs": [
        {
          "internalType": "address",
          "name": "newOwner",
          "type": "address"
        }
      ],
      "name": "transferOwnership",
      "outputs": [],
      "stateMutability": "nonpayable",
      "type": "function"
    },
    {
      "inputs": [],
      "name": "withdraw",
      "outputs": [],
      "stateMutability": "nonpayable",
      "type": "function"
    },
    {
      "stateMutability": "payable",
      "type": "receive"
    }
  ],
  "bytecode": "0x6080604052678ac7230489e80000600c55600a600e553480156200002257600080fd5b506040516200450438038062004504833981810160405281019062000048919062000371565b6040518060400160405280600781526020017f526170746f7273000000000000000000000000000000000000000000000000008152506040518060400160405280600281526020017f52530000000000000000000000000000000000000000000000000000000000008152508160009080519060200190620000cc92919062000238565b508060019080519060200190620000e592919062000238565b50505062000108620000fc6200016a60201b60201c565b6200017260201b60201c565b81600b90805190602001906200012092919062000238565b5080601060006101000a81548173ffffffffffffffffffffffffffffffffffffffff021916908373ffffffffffffffffffffffffffffffffffffffff160217905550505062000589565b600033905090565b6000600a60009054906101000a900473ffffffffffffffffffffffffffffffffffffffff16905081600a60006101000a81548173ffffffffffffffffffffffffffffffffffffffff021916908373ffffffffffffffffffffffffffffffffffffffff1602179055508173ffffffffffffffffffffffffffffffffffffffff168173ffffffffffffffffffffffffffffffffffffffff167f8be0079c531659141344cd1fd0a4f28419497f9722a3daafe3b4186f6b6457e060405160405180910390a35050565b828054620002469062000494565b90600052602060002090601f0160209004810192826200026a5760008555620002b6565b82601f106200028557805160ff1916838001178555620002b6565b82800160010185558215620002b6579182015b82811115620002b557825182559160200191906001019062000298565b5b509050620002c59190620002c9565b5090565b5b80821115620002e4576000816000905550600101620002ca565b5090565b6000620002ff620002f984620003f4565b620003cb565b9050828152602081018484840111156200031857600080fd5b620003258482856200045e565b509392505050565b6000815190506200033e816200056f565b92915050565b600082601f8301126200035657600080fd5b815162000368848260208601620002e8565b91505092915050565b600080604083850312156200038557600080fd5b600083015167ffffffffffffffff811115620003a057600080fd5b620003ae8582860162000344565b9250506020620003c1858286016200032d565b9150509250929050565b6000620003d7620003ea565b9050620003e58282620004ca565b919050565b6000604051905090565b600067ffffffffffffffff8211156200041257620004116200052f565b5b6200041d826200055e565b9050602081019050919050565b600062000437826200043e565b9050919050565b600073ffffffffffffffffffffffffffffffffffffffff82169050919050565b60005b838110156200047e57808201518184015260208101905062000461565b838111156200048e576000848401525b50505050565b60006002820490506001821680620004ad57607f821691505b60208210811415620004c457620004c362000500565b5b50919050565b620004d5826200055e565b810181811067ffffffffffffffff82111715620004f757620004f66200052f565b5b80604052505050565b7f4e487b7100000000000000000000000000000000000000000000000000000000600052602260045260246000fd5b7f4e487b7100000000000000000000000000000000000000000000000000000000600052604160045260246000fd5b6000601f19601f8301169050919050565b6200057a816200042a565b81146200058657600080fd5b50565b613f6b80620005996000396000f3fe6080604052600436106101d15760003560e01c80634f6ccce7116100f75780638da5cb5b11610095578063c87b56dd11610064578063c87b56dd1461061a578063e580b2b014610657578063e985e9c514610682578063f2fde38b146106bf576101d8565b80638da5cb5b1461057257806395d89b411461059d578063a22cb465146105c8578063b88d4fde146105f1576101d8565b80636352211e116100d15780636352211e146104b657806370a08231146104f3578063714cff5614610530578063715018a61461055b576101d8565b80634f6ccce71461044457806359533d6c146104815780635f7696211461048b576101d8565b806316c38b3c1161016f57806323b872dd1161013e57806323b872dd1461039e5780632f745c59146103c75780633ccfd60b1461040457806342842e0e1461041b576101d8565b806316c38b3c146102f457806316c61ccc1461031d57806318160ddd14610348578063235b6ea114610373576101d8565b806306fdde03116101ab57806306fdde0314610259578063081812fc14610284578063095ea7b3146102c15780631249c58b146102ea576101d8565b806301ffc9a7146101da57806304549d6f1461021757806304c98b2b14610242576101d8565b366101d857005b005b3480156101e657600080fd5b5061020160048036038101906101fc9190612da3565b6106e8565b60405161020e91906132f9565b60405180910390f35b34801561022357600080fd5b5061022c610762565b60405161023991906132f9565b60405180910390f35b34801561024e57600080fd5b50610257610775565b005b34801561026557600080fd5b5061026e6107ad565b60405161027b9190613314565b60405180910390f35b34801561029057600080fd5b506102ab60048036038101906102a69190612df5565b61083f565b6040516102b89190613292565b60405180910390f35b3480156102cd57600080fd5b506102e860048036038101906102e39190612d15565b610885565b005b6102f261099d565b005b34801561030057600080fd5b5061031b60048036038101906103169190612d51565b610afd565b005b34801561032957600080fd5b50610332610b22565b60405161033f91906132f9565b60405180910390f35b34801561035457600080fd5b5061035d610b35565b60405161036a9190613636565b60405180910390f35b34801561037f57600080fd5b50610388610b42565b6040516103959190613636565b60405180910390f35b3480156103aa57600080fd5b506103c560048036038101906103c09190612c0f565b610b48565b005b3480156103d357600080fd5b506103ee60048036038101906103e99190612d15565b610ba8565b6040516103fb9190613636565b60405180910390f35b34801561041057600080fd5b50610419610c4d565b005b34801561042757600080fd5b50610442600480360381019061043d9190612c0f565b610d17565b005b34801561045057600080fd5b5061046b60048036038101906104669190612df5565b610d37565b6040516104789190613636565b60405180910390f35b610489610dce565b005b34801561049757600080fd5b506104a0611017565b6040516104ad9190613636565b60405180910390f35b3480156104c257600080fd5b506104dd60048036038101906104d89190612df5565b61101d565b6040516104ea9190613292565b60405180910390f35b3480156104ff57600080fd5b5061051a60048036038101906105159190612baa565b6110a4565b6040516105279190613636565b60405180910390f35b34801561053c57600080fd5b5061054561115c565b6040516105529190613636565b60405180910390f35b34801561056757600080fd5b50610570611162565b005b34801561057e57600080fd5b50610587611176565b6040516105949190613292565b60405180910390f35b3480156105a957600080fd5b506105b26111a0565b6040516105bf9190613314565b60405180910390f35b3480156105d457600080fd5b506105ef60048036038101906105ea9190612cd9565b611232565b005b3480156105fd57600080fd5b5061061860048036038101906106139190612c5e565b611248565b005b34801561062657600080fd5b50610641600480360381019061063c9190612df5565b6112aa565b60405161064e9190613314565b60405180910390f35b34801561066357600080fd5b5061066c611312565b6040516106799190613636565b60405180910390f35b34801561068e57600080fd5b506106a960048036038101906106a49190612bd3565b611318565b6040516106b691906132f9565b60405180910390f35b3480156106cb57600080fd5b506106e660048036038101906106e19190612baa565b6113ac565b005b60007f780e9d63000000000000000000000000000000000000000000000000000000007bffffffffffffffffffffffffffffffffffffffffffffffffffffffff1916827bffffffffffffffffffffffffffffffffffffffffffffffffffffffff1916148061075b575061075a82611430565b5b9050919050565b601060149054906101000a900460ff1681565b61077d611512565b6001601060146101000a81548160ff0219169083151502179055506078426107a591906136f5565b601181905550565b6060600080546107bc90613835565b80601f01602080910402602001604051908101604052809291908181526020018280546107e890613835565b80156108355780601f1061080a57610100808354040283529160200191610835565b820191906000526020600020905b81548152906001019060200180831161081857829003601f168201915b5050505050905090565b600061084a82611590565b6004600083815260200190815260200160002060009054906101000a900473ffffffffffffffffffffffffffffffffffffffff169050919050565b60006108908261101d565b90508073ffffffffffffffffffffffffffffffffffffffff168373ffffffffffffffffffffffffffffffffffffffff161415610901576040517f08c379a00000000000000000000000000000000000000000000000000000000081526004016108f890613576565b60405180910390fd5b8073ffffffffffffffffffffffffffffffffffffffff166109206115db565b73ffffffffffffffffffffffffffffffffffffffff16148061094f575061094e816109496115db565b611318565b5b61098e576040517f08c379a0000000000000000000000000000000000000000000000000000000008152600401610985906135b6565b60405180910390fd5b61099883836115e3565b505050565b600d60009054906101000a900460ff16156109ed576040517f08c379a00000000000000000000000000000000000000000000000000000000081526004016109e490613536565b60405180910390fd5b601060149054906101000a900460ff168015610a0b57506011544210155b610a4a576040517f08c379a0000000000000000000000000000000000000000000000000000000008152600401610a4190613616565b60405180910390fd5b600e54600f5410610a90576040517f08c379a0000000000000000000000000000000000000000000000000000000008152600401610a8790613436565b60405180910390fd5b600c54341015610ad5576040517f08c379a0000000000000000000000000000000000000000000000000000000008152600401610acc90613596565b60405180910390fd5b6001600f6000828254610ae891906136f5565b92505081905550610afb33600f5461169c565b565b610b05611512565b80600d60006101000a81548160ff02191690831515021790555050565b600d60009054906101000a900460ff1681565b6000600880549050905090565b600c5481565b610b59610b536115db565b826116ba565b610b98576040517f08c379a0000000000000000000000000000000000000000000000000000000008152600401610b8f90613336565b60405180910390fd5b610ba383838361174f565b505050565b6000610bb3836110a4565b8210610bf4576040517f08c379a0000000000000000000000000000000000000000000000000000000008152600401610beb90613356565b60405180910390fd5b600660008473ffffffffffffffffffffffffffffffffffffffff1673ffffffffffffffffffffffffffffffffffffffff168152602001908152602001600020600083815260200190815260200160002054905092915050565b610c55611512565b6000610c5f611176565b9050600047905060008273ffffffffffffffffffffffffffffffffffffffff1682604051610c8c9061327d565b60006040518083038185875af1925050503d8060008114610cc9576040519150601f19603f3d011682016040523d82523d6000602084013e610cce565b606091505b5050905080610d12576040517f08c379a0000000000000000000000000000000000000000000000000000000008152600401610d0990613456565b60405180910390fd5b505050565b610d3283838360405180602001604052806000815250611248565b505050565b6000610d41610b35565b8210610d82576040517f08c379a0000000000000000000000000000000000000000000000000000000008152600401610d79906135d6565b60405180910390fd5b60088281548110610dbc577f4e487b7100000000000000000000000000000000000000000000000000000000600052603260045260246000fd5b90600052602060002001549050919050565b600d60009054906101000a900460ff1615610e1e576040517f08c379a0000000000000000000000000000000000000000000000000000000008152600401610e1590613536565b60405180910390fd5b601060149054906101000a900460ff168015610e3b575060115442105b610e7a576040517f08c379a0000000000000000000000000000000000000000000000000000000008152600401610e7190613416565b60405180910390fd5b601060009054906101000a900473ffffffffffffffffffffffffffffffffffffffff1673ffffffffffffffffffffffffffffffffffffffff166306c933d8336040518263ffffffff1660e01b8152600401610ed59190613292565b60206040518083038186803b158015610eed57600080fd5b505afa158015610f01573d6000803e3d6000fd5b505050506040513d601f19601f82011682018060405250810190610f259190612d7a565b610f64576040517f08c379a0000000000000000000000000000000000000000000000000000000008152600401610f5b906134f6565b60405180910390fd5b600e54600f5410610faa576040517f08c379a0000000000000000000000000000000000000000000000000000000008152600401610fa1906133d6565b60405180910390fd5b600c54341015610fef576040517f08c379a0000000000000000000000000000000000000000000000000000000008152600401610fe690613596565b60405180910390fd5b6001600f600082825461100291906136f5565b9250508190555061101533600f5461169c565b565b600e5481565b60008061102983611a49565b9050600073ffffffffffffffffffffffffffffffffffffffff168173ffffffffffffffffffffffffffffffffffffffff16141561109b576040517f08c379a000000000000000000000000000000000000000000000000000000000815260040161109290613556565b60405180910390fd5b80915050919050565b60008073ffffffffffffffffffffffffffffffffffffffff168273ffffffffffffffffffffffffffffffffffffffff161415611115576040517f08c379a000000000000000000000000000000000000000000000000000000000815260040161110c906134b6565b60405180910390fd5b600360008373ffffffffffffffffffffffffffffffffffffffff1673ffffffffffffffffffffffffffffffffffffffff168152602001908152602001600020549050919050565b600f5481565b61116a611512565b6111746000611a86565b565b6000600a60009054906101000a900473ffffffffffffffffffffffffffffffffffffffff16905090565b6060600180546111af90613835565b80601f01602080910402602001604051908101604052809291908181526020018280546111db90613835565b80156112285780601f106111fd57610100808354040283529160200191611228565b820191906000526020600020905b81548152906001019060200180831161120b57829003601f168201915b5050505050905090565b61124461123d6115db565b8383611b4c565b5050565b6112596112536115db565b836116ba565b611298576040517f08c379a000000000000000000000000000000000000000000000000000000000815260040161128f90613336565b60405180910390fd5b6112a484848484611cb9565b50505050565b60606112b582611590565b60006112bf611d15565b905060008151116112df576040518060200160405280600081525061130a565b806112e984611da7565b6040516020016112fa929190613259565b6040516020818303038152906040525b915050919050565b60115481565b6000600560008473ffffffffffffffffffffffffffffffffffffffff1673ffffffffffffffffffffffffffffffffffffffff16815260200190815260200160002060008373ffffffffffffffffffffffffffffffffffffffff1673ffffffffffffffffffffffffffffffffffffffff16815260200190815260200160002060009054906101000a900460ff16905092915050565b6113b4611512565b600073ffffffffffffffffffffffffffffffffffffffff168173ffffffffffffffffffffffffffffffffffffffff161415611424576040517f08c379a000000000000000000000000000000000000000000000000000000000815260040161141b90613396565b60405180910390fd5b61142d81611a86565b50565b60007f80ac58cd000000000000000000000000000000000000000000000000000000007bffffffffffffffffffffffffffffffffffffffffffffffffffffffff1916827bffffffffffffffffffffffffffffffffffffffffffffffffffffffff191614806114fb57507f5b5e139f000000000000000000000000000000000000000000000000000000007bffffffffffffffffffffffffffffffffffffffffffffffffffffffff1916827bffffffffffffffffffffffffffffffffffffffffffffffffffffffff1916145b8061150b575061150a82611ecb565b5b9050919050565b61151a6115db565b73ffffffffffffffffffffffffffffffffffffffff16611538611176565b73ffffffffffffffffffffffffffffffffffffffff161461158e576040517f08c379a000000000000000000000000000000000000000000000000000000000815260040161158590613516565b60405180910390fd5b565b61159981611f35565b6115d8576040517f08c379a00000000000000000000000000000000000000000000000000000000081526004016115cf90613556565b60405180910390fd5b50565b600033905090565b816004600083815260200190815260200160002060006101000a81548173ffffffffffffffffffffffffffffffffffffffff021916908373ffffffffffffffffffffffffffffffffffffffff160217905550808273ffffffffffffffffffffffffffffffffffffffff166116568361101d565b73ffffffffffffffffffffffffffffffffffffffff167f8c5be1e5ebec7d5bd14f71427d1e84f3dd0314c0f7b2291e5b200ac8c7c3b92560405160405180910390a45050565b6116b6828260405180602001604052806000815250611f76565b5050565b6000806116c68361101d565b90508073ffffffffffffffffffffffffffffffffffffffff168473ffffffffffffffffffffffffffffffffffffffff16148061170857506117078185611318565b5b8061174657508373ffffffffffffffffffffffffffffffffffffffff1661172e8461083f565b73ffffffffffffffffffffffffffffffffffffffff16145b91505092915050565b8273ffffffffffffffffffffffffffffffffffffffff1661176f8261101d565b73ffffffffffffffffffffffffffffffffffffffff16146117c5576040517f08c379a00000000000000000000000000000000000000000000000000000000081526004016117bc906133b6565b60405180910390fd5b600073ffffffffffffffffffffffffffffffffffffffff168273ffffffffffffffffffffffffffffffffffffffff161415611835576040517f08c379a000000000000000000000000000000000000000000000000000000000815260040161182c90613476565b60405180910390fd5b6118428383836001611fd1565b8273ffffffffffffffffffffffffffffffffffffffff166118628261101d565b73ffffffffffffffffffffffffffffffffffffffff16146118b8576040517f08c379a00000000000000000000000000000000000000000000000000000000081526004016118af906133b6565b60405180910390fd5b6004600082815260200190815260200160002060006101000a81549073ffffffffffffffffffffffffffffffffffffffff02191690556001600360008573ffffffffffffffffffffffffffffffffffffffff1673ffffffffffffffffffffffffffffffffffffffff168152602001908152602001600020600082825403925050819055506001600360008473ffffffffffffffffffffffffffffffffffffffff1673ffffffffffffffffffffffffffffffffffffffff16815260200190815260200160002060008282540192505081905550816002600083815260200190815260200160002060006101000a81548173ffffffffffffffffffffffffffffffffffffffff021916908373ffffffffffffffffffffffffffffffffffffffff160217905550808273ffffffffffffffffffffffffffffffffffffffff168473ffffffffffffffffffffffffffffffffffffffff167fddf252ad1be2c89b69c2b068fc378daa952ba7f163c4a11628f55a4df523b3ef60405160405180910390a4611a448383836001612131565b505050565b60006002600083815260200190815260200160002060009054906101000a900473ffffffffffffffffffffffffffffffffffffffff169050919050565b6000600a60009054906101000a900473ffffffffffffffffffffffffffffffffffffffff16905081600a60006101000a81548173ffffffffffffffffffffffffffffffffffffffff021916908373ffffffffffffffffffffffffffffffffffffffff1602179055508173ffffffffffffffffffffffffffffffffffffffff168173ffffffffffffffffffffffffffffffffffffffff167f8be0079c531659141344cd1fd0a4f28419497f9722a3daafe3b4186f6b6457e060405160405180910390a35050565b8173ffffffffffffffffffffffffffffffffffffffff168373ffffffffffffffffffffffffffffffffffffffff161415611bbb576040517f08c379a0000000000000000000000000000000000000000000000000000000008152600401611bb290613496565b60405180910390fd5b80600560008573ffffffffffffffffffffffffffffffffffffffff1673ffffffffffffffffffffffffffffffffffffffff16815260200190815260200160002060008473ffffffffffffffffffffffffffffffffffffffff1673ffffffffffffffffffffffffffffffffffffffff16815260200190815260200160002060006101000a81548160ff0219169083151502179055508173ffffffffffffffffffffffffffffffffffffffff168373ffffffffffffffffffffffffffffffffffffffff167f17307eab39ab6107e8899845ad3d59bd9653f200f220920489ca2b5937696c3183604051611cac91906132f9565b60405180910390a3505050565b611cc484848461174f565b611cd084848484612137565b611d0f576040517f08c379a0000000000000000000000000000000000000000000000000000000008152600401611d0690613376565b60405180910390fd5b50505050565b6060600b8054611d2490613835565b80601f0160208091040260200160405190810160405280929190818152602001828054611d5090613835565b8015611d9d5780601f10611d7257610100808354040283529160200191611d9d565b820191906000526020600020905b815481529060010190602001808311611d8057829003601f168201915b5050505050905090565b606060006001611db6846122ce565b01905060008167ffffffffffffffff811115611dfb577f4e487b7100000000000000000000000000000000000000000000000000000000600052604160045260246000fd5b6040519080825280601f01601f191660200182016040528015611e2d5781602001600182028036833780820191505090505b509050600082602001820190505b600115611ec0578080600190039150507f3031323334353637383961626364656600000000000000000000000000000000600a86061a8153600a8581611eaa577f4e487b7100000000000000000000000000000000000000000000000000000000600052601260045260246000fd5b0494506000851415611ebb57611ec0565b611e3b565b819350505050919050565b60007f01ffc9a7000000000000000000000000000000000000000000000000000000007bffffffffffffffffffffffffffffffffffffffffffffffffffffffff1916827bffffffffffffffffffffffffffffffffffffffffffffffffffffffff1916149050919050565b60008073ffffffffffffffffffffffffffffffffffffffff16611f5783611a49565b73ffffffffffffffffffffffffffffffffffffffff1614159050919050565b611f808383612505565b611f8d6000848484612137565b611fcc576040517f08c379a0000000000000000000000000000000000000000000000000000000008152600401611fc390613376565b60405180910390fd5b505050565b611fdd84848484612723565b6001811115612021576040517f08c379a0000000000000000000000000000000000000000000000000000000008152600401612018906135f6565b60405180910390fd5b6000829050600073ffffffffffffffffffffffffffffffffffffffff168573ffffffffffffffffffffffffffffffffffffffff1614156120695761206481612729565b6120a8565b8373ffffffffffffffffffffffffffffffffffffffff168573ffffffffffffffffffffffffffffffffffffffff16146120a7576120a68582612772565b5b5b600073ffffffffffffffffffffffffffffffffffffffff168473ffffffffffffffffffffffffffffffffffffffff1614156120eb576120e6816128df565b61212a565b8473ffffffffffffffffffffffffffffffffffffffff168473ffffffffffffffffffffffffffffffffffffffff1614612129576121288482612a22565b5b5b5050505050565b50505050565b60006121588473ffffffffffffffffffffffffffffffffffffffff16612aa1565b156122c1578373ffffffffffffffffffffffffffffffffffffffff1663150b7a026121816115db565b8786866040518563ffffffff1660e01b81526004016121a394939291906132ad565b602060405180830381600087803b1580156121bd57600080fd5b505af19250505080156121ee57506040513d601f19601f820116820180604052508101906121eb9190612dcc565b60015b612271573d806000811461221e576040519150601f19603f3d011682016040523d82523d6000602084013e612223565b606091505b50600081511415612269576040517f08c379a000000000000000000000000000000000000000000000000000000000815260040161226090613376565b60405180910390fd5b805181602001fd5b63150b7a0260e01b7bffffffffffffffffffffffffffffffffffffffffffffffffffffffff1916817bffffffffffffffffffffffffffffffffffffffffffffffffffffffff1916149150506122c6565b600190505b949350505050565b600080600090507a184f03e93ff9f4daa797ed6e38ed64bf6a1f0100000000000000008310612352577a184f03e93ff9f4daa797ed6e38ed64bf6a1f0100000000000000008381612348577f4e487b7100000000000000000000000000000000000000000000000000000000600052601260045260246000fd5b0492506040810190505b6d04ee2d6d415b85acef810000000083106123b5576d04ee2d6d415b85acef810000000083816123ab577f4e487b7100000000000000000000000000000000000000000000000000000000600052601260045260246000fd5b0492506020810190505b662386f26fc10000831061240a57662386f26fc100008381612400577f4e487b7100000000000000000000000000000000000000000000000000000000600052601260045260246000fd5b0492506010810190505b6305f5e1008310612459576305f5e100838161244f577f4e487b7100000000000000000000000000000000000000000000000000000000600052601260045260246000fd5b0492506008810190505b61271083106124a457612710838161249a577f4e487b7100000000000000000000000000000000000000000000000000000000600052601260045260246000fd5b0492506004810190505b606483106124ed57606483816124e3577f4e487b7100000000000000000000000000000000000000000000000000000000600052601260045260246000fd5b0492506002810190505b600a83106124fc576001810190505b80915050919050565b600073ffffffffffffffffffffffffffffffffffffffff168273ffffffffffffffffffffffffffffffffffffffff161415612575576040517f08c379a000000000000000000000000000000000000000000000000000000000815260040161256c906134d6565b60405180910390fd5b61257e81611f35565b156125be576040517f08c379a00000000000000000000000000000000000000000000000000000000081526004016125b5906133f6565b60405180910390fd5b6125cc600083836001611fd1565b6125d581611f35565b15612615576040517f08c379a000000000000000000000000000000000000000000000000000000000815260040161260c906133f6565b60405180910390fd5b6001600360008473ffffffffffffffffffffffffffffffffffffffff1673ffffffffffffffffffffffffffffffffffffffff16815260200190815260200160002060008282540192505081905550816002600083815260200190815260200160002060006101000a81548173ffffffffffffffffffffffffffffffffffffffff021916908373ffffffffffffffffffffffffffffffffffffffff160217905550808273ffffffffffffffffffffffffffffffffffffffff16600073ffffffffffffffffffffffffffffffffffffffff167fddf252ad1be2c89b69c2b068fc378daa952ba7f163c4a11628f55a4df523b3ef60405160405180910390a461271f600083836001612131565b5050565b50505050565b6008805490506009600083815260200190815260200160002081905550600881908060018154018082558091505060019003906000526020600020016000909190919091505550565b6000600161277f846110a4565b612789919061374b565b905060006007600084815260200190815260200160002054905081811461286e576000600660008673ffffffffffffffffffffffffffffffffffffffff1673ffffffffffffffffffffffffffffffffffffffff168152602001908152602001600020600084815260200190815260200160002054905080600660008773ffffffffffffffffffffffffffffffffffffffff1673ffffffffffffffffffffffffffffffffffffffff168152602001908152602001600020600084815260200190815260200160002081905550816007600083815260200190815260200160002081905550505b6007600084815260200190815260200160002060009055600660008573ffffffffffffffffffffffffffffffffffffffff1673ffffffffffffffffffffffffffffffffffffffff16815260200190815260200160002060008381526020019081526020016000206000905550505050565b600060016008805490506128f3919061374b565b9050600060096000848152602001908152602001600020549050600060088381548110612949577f4e487b7100000000000000000000000000000000000000000000000000000000600052603260045260246000fd5b906000526020600020015490508060088381548110612991577f4e487b7100000000000000000000000000000000000000000000000000000000600052603260045260246000fd5b906000526020600020018190555081600960008381526020019081526020016000208190555060096000858152602001908152602001600020600090556008805480612a06577f4e487b7100000000000000000000000000000000000000000000000000000000600052603160045260246000fd5b6001900381819060005260206000200160009055905550505050565b6000612a2d836110a4565b905081600660008573ffffffffffffffffffffffffffffffffffffffff1673ffffffffffffffffffffffffffffffffffffffff168152602001908152602001600020600083815260200190815260200160002081905550806007600084815260200190815260200160002081905550505050565b6000808273ffffffffffffffffffffffffffffffffffffffff163b119050919050565b6000612ad7612ad284613676565b613651565b905082815260208101848484011115612aef57600080fd5b612afa8482856137f3565b509392505050565b600081359050612b1181613ed9565b92915050565b600081359050612b2681613ef0565b92915050565b600081519050612b3b81613ef0565b92915050565b600081359050612b5081613f07565b92915050565b600081519050612b6581613f07565b92915050565b600082601f830112612b7c57600080fd5b8135612b8c848260208601612ac4565b91505092915050565b600081359050612ba481613f1e565b92915050565b600060208284031215612bbc57600080fd5b6000612bca84828501612b02565b91505092915050565b60008060408385031215612be657600080fd5b6000612bf485828601612b02565b9250506020612c0585828601612b02565b9150509250929050565b600080600060608486031215612c2457600080fd5b6000612c3286828701612b02565b9350506020612c4386828701612b02565b9250506040612c5486828701612b95565b9150509250925092565b60008060008060808587031215612c7457600080fd5b6000612c8287828801612b02565b9450506020612c9387828801612b02565b9350506040612ca487828801612b95565b925050606085013567ffffffffffffffff811115612cc157600080fd5b612ccd87828801612b6b565b91505092959194509250565b60008060408385031215612cec57600080fd5b6000612cfa85828601612b02565b9250506020612d0b85828601612b17565b9150509250929050565b60008060408385031215612d2857600080fd5b6000612d3685828601612b02565b9250506020612d4785828601612b95565b9150509250929050565b600060208284031215612d6357600080fd5b6000612d7184828501612b17565b91505092915050565b600060208284031215612d8c57600080fd5b6000612d9a84828501612b2c565b91505092915050565b600060208284031215612db557600080fd5b6000612dc384828501612b41565b91505092915050565b600060208284031215612dde57600080fd5b6000612dec84828501612b56565b91505092915050565b600060208284031215612e0757600080fd5b6000612e1584828501612b95565b91505092915050565b612e278161377f565b82525050565b612e3681613791565b82525050565b6000612e47826136a7565b612e5181856136bd565b9350612e61818560208601613802565b612e6a81613925565b840191505092915050565b6000612e80826136b2565b612e8a81856136d9565b9350612e9a818560208601613802565b612ea381613925565b840191505092915050565b6000612eb9826136b2565b612ec381856136ea565b9350612ed3818560208601613802565b80840191505092915050565b6000612eec602d836136d9565b9150612ef782613936565b604082019050919050565b6000612f0f602b836136d9565b9150612f1a82613985565b604082019050919050565b6000612f326032836136d9565b9150612f3d826139d4565b604082019050919050565b6000612f556026836136d9565b9150612f6082613a23565b604082019050919050565b6000612f786025836136d9565b9150612f8382613a72565b604082019050919050565b6000612f9b6023836136d9565b9150612fa682613ac1565b604082019050919050565b6000612fbe601c836136d9565b9150612fc982613b10565b602082019050919050565b6000612fe16016836136d9565b9150612fec82613b39565b602082019050919050565b6000613004601d836136d9565b915061300f82613b62565b602082019050919050565b60006130276014836136d9565b915061303282613b8b565b602082019050919050565b600061304a6024836136d9565b915061305582613bb4565b604082019050919050565b600061306d6019836136d9565b915061307882613c03565b602082019050919050565b60006130906029836136d9565b915061309b82613c2c565b604082019050919050565b60006130b36020836136d9565b91506130be82613c7b565b602082019050919050565b60006130d66017836136d9565b91506130e182613ca4565b602082019050919050565b60006130f96020836136d9565b915061310482613ccd565b602082019050919050565b600061311c6019836136d9565b915061312782613cf6565b602082019050919050565b600061313f6018836136d9565b915061314a82613d1f565b602082019050919050565b60006131626021836136d9565b915061316d82613d48565b604082019050919050565b60006131856019836136d9565b915061319082613d97565b602082019050919050565b60006131a86000836136ce565b91506131b382613dc0565b600082019050919050565b60006131cb603d836136d9565b91506131d682613dc3565b604082019050919050565b60006131ee602c836136d9565b91506131f982613e12565b604082019050919050565b60006132116035836136d9565b915061321c82613e61565b604082019050919050565b60006132346019836136d9565b915061323f82613eb0565b602082019050919050565b613253816137e9565b82525050565b60006132658285612eae565b91506132718284612eae565b91508190509392505050565b60006132888261319b565b9150819050919050565b60006020820190506132a76000830184612e1e565b92915050565b60006080820190506132c26000830187612e1e565b6132cf6020830186612e1e565b6132dc604083018561324a565b81810360608301526132ee8184612e3c565b905095945050505050565b600060208201905061330e6000830184612e2d565b92915050565b6000602082019050818103600083015261332e8184612e75565b905092915050565b6000602082019050818103600083015261334f81612edf565b9050919050565b6000602082019050818103600083015261336f81612f02565b9050919050565b6000602082019050818103600083015261338f81612f25565b9050919050565b600060208201905081810360008301526133af81612f48565b9050919050565b600060208201905081810360008301526133cf81612f6b565b9050919050565b600060208201905081810360008301526133ef81612f8e565b9050919050565b6000602082019050818103600083015261340f81612fb1565b9050919050565b6000602082019050818103600083015261342f81612fd4565b9050919050565b6000602082019050818103600083015261344f81612ff7565b9050919050565b6000602082019050818103600083015261346f8161301a565b9050919050565b6000602082019050818103600083015261348f8161303d565b9050919050565b600060208201905081810360008301526134af81613060565b9050919050565b600060208201905081810360008301526134cf81613083565b9050919050565b600060208201905081810360008301526134ef816130a6565b9050919050565b6000602082019050818103600083015261350f816130c9565b9050919050565b6000602082019050818103600083015261352f816130ec565b9050919050565b6000602082019050818103600083015261354f8161310f565b9050919050565b6000602082019050818103600083015261356f81613132565b9050919050565b6000602082019050818103600083015261358f81613155565b9050919050565b600060208201905081810360008301526135af81613178565b9050919050565b600060208201905081810360008301526135cf816131be565b9050919050565b600060208201905081810360008301526135ef816131e1565b9050919050565b6000602082019050818103600083015261360f81613204565b9050919050565b6000602082019050818103600083015261362f81613227565b9050919050565b600060208201905061364b600083018461324a565b92915050565b600061365b61366c565b90506136678282613867565b919050565b6000604051905090565b600067ffffffffffffffff821115613691576136906138f6565b5b61369a82613925565b9050602081019050919050565b600081519050919050565b600081519050919050565b600082825260208201905092915050565b600081905092915050565b600082825260208201905092915050565b600081905092915050565b6000613700826137e9565b915061370b836137e9565b9250827fffffffffffffffffffffffffffffffffffffffffffffffffffffffffffffffff038211156137405761373f613898565b5b828201905092915050565b6000613756826137e9565b9150613761836137e9565b92508282101561377457613773613898565b5b828203905092915050565b600061378a826137c9565b9050919050565b60008115159050919050565b60007fffffffff0000000000000000000000000000000000000000000000000000000082169050919050565b600073ffffffffffffffffffffffffffffffffffffffff82169050919050565b6000819050919050565b82818337600083830152505050565b60005b83811015613820578082015181840152602081019050613805565b8381111561382f576000848401525b50505050565b6000600282049050600182168061384d57607f821691505b60208210811415613861576138606138c7565b5b50919050565b61387082613925565b810181811067ffffffffffffffff8211171561388f5761388e6138f6565b5b80604052505050565b7f4e487b7100000000000000000000000000000000000000000000000000000000600052601160045260246000fd5b7f4e487b7100000000000000000000000000000000000000000000000000000000600052602260045260246000fd5b7f4e487b7100000000000000000000000000000000000000000000000000000000600052604160045260246000fd5b6000601f19601f8301169050919050565b7f4552433732313a2063616c6c6572206973206e6f7420746f6b656e206f776e6560008201527f72206f7220617070726f76656400000000000000000000000000000000000000602082015250565b7f455243373231456e756d657261626c653a206f776e657220696e646578206f7560008201527f74206f6620626f756e6473000000000000000000000000000000000000000000602082015250565b7f4552433732313a207472616e7366657220746f206e6f6e20455243373231526560008201527f63656976657220696d706c656d656e7465720000000000000000000000000000602082015250565b7f4f776e61626c653a206e6577206f776e657220697320746865207a65726f206160008201527f6464726573730000000000000000000000000000000000000000000000000000602082015250565b7f4552433732313a207472616e736665722066726f6d20696e636f72726563742060008201527f6f776e6572000000000000000000000000000000000000000000000000000000602082015250565b7f4578636565646564206d6178696d756d2043727970746f20446576732073757060008201527f706c790000000000000000000000000000000000000000000000000000000000602082015250565b7f4552433732313a20746f6b656e20616c7265616479206d696e74656400000000600082015250565b7f50726573616c65206973206e6f742072756e6e696e6700000000000000000000600082015250565b7f457863656564206d6178696d756d20526170746f727320737570706c79000000600082015250565b7f4661696c656420746f2073656e64204574686572000000000000000000000000600082015250565b7f4552433732313a207472616e7366657220746f20746865207a65726f2061646460008201527f7265737300000000000000000000000000000000000000000000000000000000602082015250565b7f4552433732313a20617070726f766520746f2063616c6c657200000000000000600082015250565b7f4552433732313a2061646472657373207a65726f206973206e6f74206120766160008201527f6c6964206f776e65720000000000000000000000000000000000000000000000602082015250565b7f4552433732313a206d696e7420746f20746865207a65726f2061646472657373600082015250565b7f596f7520617265206e6f742077686974656c6973746564000000000000000000600082015250565b7f4f776e61626c653a2063616c6c6572206973206e6f7420746865206f776e6572600082015250565b7f436f6e74726163742063757272656e746c792070617573656400000000000000600082015250565b7f4552433732313a20696e76616c696420746f6b656e2049440000000000000000600082015250565b7f4552433732313a20617070726f76616c20746f2063757272656e74206f776e6560008201527f7200000000000000000000000000000000000000000000000000000000000000602082015250565b7f45746865722073656e74206973206e6f7420636f727265637400000000000000600082015250565b50565b7f4552433732313a20617070726f76652063616c6c6572206973206e6f7420746f60008201527f6b656e206f776e6572206f7220617070726f76656420666f7220616c6c000000602082015250565b7f455243373231456e756d657261626c653a20676c6f62616c20696e646578206f60008201527f7574206f6620626f756e64730000000000000000000000000000000000000000602082015250565b7f455243373231456e756d657261626c653a20636f6e736563757469766520747260008201527f616e7366657273206e6f7420737570706f727465640000000000000000000000602082015250565b7f50726573616c6520686173206e6f7420656e6465642079657400000000000000600082015250565b613ee28161377f565b8114613eed57600080fd5b50565b613ef981613791565b8114613f0457600080fd5b50565b613f108161379d565b8114613f1b57600080fd5b50565b613f27816137e9565b8114613f3257600080fd5b5056fea264697066735822122030a9b259d563d121c8fcc9fb4c3f97489252d9e38898bfd5918a9a84b354cd7a64736f6c63430008040033",
  "linkReferences": {},
  "deployedLinkReferences": {}
}